{
  "_format": "hh-sol-artifact-1",
  "contractName": "Voting",
  "sourceName": "contracts/Voting.sol",
  "abi": [
    {
      "inputs": [],
      "stateMutability": "nonpayable",
      "type": "constructor"
    },
    {
      "inputs": [
        {
          "internalType": "string",
          "name": "_name",
          "type": "string"
        },
        {
          "internalType": "string",
          "name": "_bio",
          "type": "string"
        },
        {
          "internalType": "string",
          "name": "_achievements",
          "type": "string"
        },
        {
          "internalType": "string",
          "name": "_image",
          "type": "string"
        }
      ],
      "name": "addCandidate",
      "outputs": [],
      "stateMutability": "nonpayable",
      "type": "function"
    },
    {
      "inputs": [],
      "name": "admin",
      "outputs": [
        {
          "internalType": "address",
          "name": "",
          "type": "address"
        }
      ],
      "stateMutability": "view",
      "type": "function"
    },
    {
      "inputs": [],
      "name": "candidateCount",
      "outputs": [
        {
          "internalType": "uint256",
          "name": "",
          "type": "uint256"
        }
      ],
      "stateMutability": "view",
      "type": "function"
    },
    {
      "inputs": [
        {
          "internalType": "uint256",
          "name": "",
          "type": "uint256"
        }
      ],
      "name": "candidates",
      "outputs": [
        {
          "internalType": "uint256",
          "name": "id",
          "type": "uint256"
        },
        {
          "internalType": "string",
          "name": "name",
          "type": "string"
        },
        {
          "internalType": "string",
          "name": "bio",
          "type": "string"
        },
        {
          "internalType": "string",
          "name": "achievements",
          "type": "string"
        },
        {
          "internalType": "string",
          "name": "image",
          "type": "string"
        },
        {
          "internalType": "uint256",
          "name": "voteCount",
          "type": "uint256"
        }
      ],
      "stateMutability": "view",
      "type": "function"
    },
    {
      "inputs": [
        {
          "internalType": "uint256",
          "name": "_id",
          "type": "uint256"
        }
      ],
      "name": "getCandidate",
      "outputs": [
        {
          "internalType": "uint256",
          "name": "",
          "type": "uint256"
        },
        {
          "internalType": "string",
          "name": "",
          "type": "string"
        },
        {
          "internalType": "string",
          "name": "",
          "type": "string"
        },
        {
          "internalType": "string",
          "name": "",
          "type": "string"
        },
        {
          "internalType": "string",
          "name": "",
          "type": "string"
        },
        {
          "internalType": "uint256",
          "name": "",
          "type": "uint256"
        }
      ],
      "stateMutability": "view",
      "type": "function"
    },
    {
      "inputs": [
        {
          "internalType": "address",
          "name": "",
          "type": "address"
        }
      ],
      "name": "hasVoted",
      "outputs": [
        {
          "internalType": "bool",
          "name": "",
          "type": "bool"
        }
      ],
      "stateMutability": "view",
      "type": "function"
    },
    {
      "inputs": [
        {
          "internalType": "uint256",
          "name": "_candidateId",
          "type": "uint256"
        }
      ],
      "name": "vote",
      "outputs": [],
      "stateMutability": "nonpayable",
      "type": "function"
    },
    {
      "inputs": [
        {
          "internalType": "uint256",
          "name": "_electionId",
          "type": "uint256"
        }
      ],
      "name": "toggleElectionActive",
      "outputs": [],
      "stateMutability": "nonpayable",
      "type": "function"
    },
    {
      "inputs": [
        {
          "internalType": "string",
          "name": "_title",
          "type": "string"
        },
        {
          "internalType": "uint256",
          "name": "_startTime",
          "type": "uint256"
        },
        {
          "internalType": "uint256",
          "name": "_endTime",
          "type": "uint256"
        }
      ],
      "name": "createElection",
      "outputs": [],
      "stateMutability": "nonpayable",
      "type": "function"
    }
  ],
  "bytecode": "0x60806040526000600155348015601457600080fd5b50336000806101000a81548173ffffffffffffffffffffffffffffffffffffffff021916908373ffffffffffffffffffffffffffffffffffffffff16021790555061131d806100646000396000f3fe608060405234801561001057600080fd5b506004361061007d5760003560e01c806335b8e8201161005b57806335b8e8201461010357806342b03cc914610138578063a9a981a314610154578063f851a440146101725761007d565b80630121b93f1461008257806309eef43e1461009e5780633477ee2e146100ce575b600080fd5b61009c600480360381019061009791906109f3565b610190565b005b6100b860048036038101906100b39190610a7e565b6102e8565b6040516100c59190610ac6565b60405180910390f35b6100e860048036038101906100e391906109f3565b610308565b6040516100fa96959493929190610b80565b60405180910390f35b61011d600480360381019061011891906109f3565b610564565b60405161012f96959493929190610b80565b60405180910390f35b610152600480360381019061014d9190610d32565b61081f565b005b61015c61097f565b6040516101699190610e09565b60405180910390f35b61017a610985565b6040516101879190610e33565b60405180910390f35b600360003373ffffffffffffffffffffffffffffffffffffffff1673ffffffffffffffffffffffffffffffffffffffff16815260200190815260200160002060009054906101000a900460ff161561021d576040517f08c379a000000000000000000000000000000000000000000000000000000000815260040161021490610e9a565b60405180910390fd5b6001548110610261576040517f08c379a000000000000000000000000000000000000000000000000000000000815260040161025890610f06565b60405180910390fd5b60026000828152602001908152602001600020600501600081548092919061028890610f55565b91905055506001600360003373ffffffffffffffffffffffffffffffffffffffff1673ffffffffffffffffffffffffffffffffffffffff16815260200190815260200160002060006101000a81548160ff02191690831515021790555050565b60036020528060005260406000206000915054906101000a900460ff1681565b600260205280600052604060002060009150905080600001549080600101805461033190610fcc565b80601f016020809104026020016040519081016040528092919081815260200182805461035d90610fcc565b80156103aa5780601f1061037f576101008083540402835291602001916103aa565b820191906000526020600020905b81548152906001019060200180831161038d57829003601f168201915b5050505050908060020180546103bf90610fcc565b80601f01602080910402602001604051908101604052809291908181526020018280546103eb90610fcc565b80156104385780601f1061040d57610100808354040283529160200191610438565b820191906000526020600020905b81548152906001019060200180831161041b57829003601f168201915b50505050509080600301805461044d90610fcc565b80601f016020809104026020016040519081016040528092919081815260200182805461047990610fcc565b80156104c65780601f1061049b576101008083540402835291602001916104c6565b820191906000526020600020905b8154815290600101906020018083116104a957829003601f168201915b5050505050908060040180546104db90610fcc565b80601f016020809104026020016040519081016040528092919081815260200182805461050790610fcc565b80156105545780601f1061052957610100808354040283529160200191610554565b820191906000526020600020905b81548152906001019060200180831161053757829003601f168201915b5050505050908060050154905086565b6000606080606080600080600260008981526020019081526020016000206040518060c0016040529081600082015481526020016001820180546105a790610fcc565b80601f01602080910402602001604051908101604052809291908181526020018280546105d390610fcc565b80156106205780601f106105f557610100808354040283529160200191610620565b820191906000526020600020905b81548152906001019060200180831161060357829003601f168201915b5050505050815260200160028201805461063990610fcc565b80601f016020809104026020016040519081016040528092919081815260200182805461066590610fcc565b80156106b25780601f10610687576101008083540402835291602001916106b2565b820191906000526020600020905b81548152906001019060200180831161069557829003601f168201915b505050505081526020016003820180546106cb90610fcc565b80601f01602080910402602001604051908101604052809291908181526020018280546106f790610fcc565b80156107445780601f1061071957610100808354040283529160200191610744565b820191906000526020600020905b81548152906001019060200180831161072757829003601f168201915b5050505050815260200160048201805461075d90610fcc565b80601f016020809104026020016040519081016040528092919081815260200182805461078990610fcc565b80156107d65780601f106107ab576101008083540402835291602001916107d6565b820191906000526020600020905b8154815290600101906020018083116107b957829003601f168201915b505050505081526020016005820154815250509050806000015181602001518260400151836060015184608001518560a001519650965096509650965096505091939550919395565b60008054906101000a900473ffffffffffffffffffffffffffffffffffffffff1673ffffffffffffffffffffffffffffffffffffffff163373ffffffffffffffffffffffffffffffffffffffff16146108ad576040517f08c379a00000000000000000000000000000000000000000000000000000000081526004016108a490611049565b60405180910390fd5b6040518060c00160405280600154815260200185815260200184815260200183815260200182815260200160008152506002600060015481526020019081526020016000206000820151816000015560208201518160010190816109119190611215565b5060408201518160020190816109279190611215565b50606082015181600301908161093d9190611215565b5060808201518160040190816109539190611215565b5060a082015181600501559050506001600081548092919061097490610f55565b919050555050505050565b60015481565b60008054906101000a900473ffffffffffffffffffffffffffffffffffffffff1681565b6000604051905090565b600080fd5b600080fd5b6000819050919050565b6109d0816109bd565b81146109db57600080fd5b50565b6000813590506109ed816109c7565b92915050565b600060208284031215610a0957610a086109b3565b5b6000610a17848285016109de565b91505092915050565b600073ffffffffffffffffffffffffffffffffffffffff82169050919050565b6000610a4b82610a20565b9050919050565b610a5b81610a40565b8114610a6657600080fd5b50565b600081359050610a7881610a52565b92915050565b600060208284031215610a9457610a936109b3565b5b6000610aa284828501610a69565b91505092915050565b60008115159050919050565b610ac081610aab565b82525050565b6000602082019050610adb6000830184610ab7565b92915050565b610aea816109bd565b82525050565b600081519050919050565b600082825260208201905092915050565b60005b83811015610b2a578082015181840152602081019050610b0f565b60008484015250505050565b6000601f19601f8301169050919050565b6000610b5282610af0565b610b5c8185610afb565b9350610b6c818560208601610b0c565b610b7581610b36565b840191505092915050565b600060c082019050610b956000830189610ae1565b8181036020830152610ba78188610b47565b90508181036040830152610bbb8187610b47565b90508181036060830152610bcf8186610b47565b90508181036080830152610be38185610b47565b9050610bf260a0830184610ae1565b979650505050505050565b600080fd5b600080fd5b7f4e487b7100000000000000000000000000000000000000000000000000000000600052604160045260246000fd5b610c3f82610b36565b810181811067ffffffffffffffff82111715610c5e57610c5d610c07565b5b80604052505050565b6000610c716109a9565b9050610c7d8282610c36565b919050565b600067ffffffffffffffff821115610c9d57610c9c610c07565b5b610ca682610b36565b9050602081019050919050565b82818337600083830152505050565b6000610cd5610cd084610c82565b610c67565b905082815260208101848484011115610cf157610cf0610c02565b5b610cfc848285610cb3565b509392505050565b600082601f830112610d1957610d18610bfd565b5b8135610d29848260208601610cc2565b91505092915050565b60008060008060808587031215610d4c57610d4b6109b3565b5b600085013567ffffffffffffffff811115610d6a57610d696109b8565b5b610d7687828801610d04565b945050602085013567ffffffffffffffff811115610d9757610d966109b8565b5b610da387828801610d04565b935050604085013567ffffffffffffffff811115610dc457610dc36109b8565b5b610dd087828801610d04565b925050606085013567ffffffffffffffff811115610df157610df06109b8565b5b610dfd87828801610d04565b91505092959194509250565b6000602082019050610e1e6000830184610ae1565b92915050565b610e2d81610a40565b82525050565b6000602082019050610e486000830184610e24565b92915050565b7f596f75206861766520616c726561647920766f74656400000000000000000000600082015250565b6000610e84601683610afb565b9150610e8f82610e4e565b602082019050919050565b60006020820190508181036000830152610eb381610e77565b9050919050565b7f496e76616c69642063616e646964617465000000000000000000000000000000600082015250565b6000610ef0601183610afb565b9150610efb82610eba565b602082019050919050565b60006020820190508181036000830152610f1f81610ee3565b9050919050565b7f4e487b7100000000000000000000000000000000000000000000000000000000600052601160045260246000fd5b6000610f60826109bd565b91507fffffffffffffffffffffffffffffffffffffffffffffffffffffffffffffffff8203610f9257610f91610f26565b5b600182019050919050565b7f4e487b7100000000000000000000000000000000000000000000000000000000600052602260045260246000fd5b60006002820490506001821680610fe457607f821691505b602082108103610ff757610ff6610f9d565b5b50919050565b7f4f6e6c792061646d696e2063616e206164642063616e64696461746573000000600082015250565b6000611033601d83610afb565b915061103e82610ffd565b602082019050919050565b6000602082019050818103600083015261106281611026565b9050919050565b60008190508160005260206000209050919050565b60006020601f8301049050919050565b600082821b905092915050565b6000600883026110cb7fffffffffffffffffffffffffffffffffffffffffffffffffffffffffffffffff8261108e565b6110d5868361108e565b95508019841693508086168417925050509392505050565b6000819050919050565b600061111261110d611108846109bd565b6110ed565b6109bd565b9050919050565b6000819050919050565b61112c836110f7565b61114061113882611119565b84845461109b565b825550505050565b600090565b611155611148565b611160818484611123565b505050565b5b818110156111845761117960008261114d565b600181019050611166565b5050565b601f8211156111c95761119a81611069565b6111a38461107e565b810160208510156111b2578190505b6111c66111be8561107e565b830182611165565b50505b505050565b600082821c905092915050565b60006111ec600019846008026111ce565b1980831691505092915050565b600061120583836111db565b9150826002028217905092915050565b61121e82610af0565b67ffffffffffffffff81111561123757611236610c07565b5b6112418254610fcc565b61124c828285611188565b600060209050601f83116001811461127f576000841561126d578287015190505b61127785826111f9565b8655506112df565b601f19841661128d86611069565b60005b828110156112b557848901518255600182019150602085019450602081019050611290565b868310156112d257848901516112ce601f8916826111db565b8355505b6001600288020188555050505b50505050505056fea2646970667358221220cc9e1a060138eaf58b39ca0a6cc9838268aac5909a39f74ddd933678fd38190f64736f6c634300081c0033",
  "linkReferences": {},
  "deployedLinkReferences": {}
}